{
  "contractName": "NftDetails",
  "abi": [
    {
      "anonymous": false,
      "inputs": [
        {
          "indexed": true,
          "internalType": "address",
          "name": "previousOwner",
          "type": "address"
        },
        {
          "indexed": true,
          "internalType": "address",
          "name": "newOwner",
          "type": "address"
        }
      ],
      "name": "OwnershipTransferred",
      "type": "event"
    },
    {
      "inputs": [],
      "name": "owner",
      "outputs": [
        {
          "internalType": "address",
          "name": "",
          "type": "address"
        }
      ],
      "stateMutability": "view",
      "type": "function"
    },
    {
      "inputs": [],
      "name": "renounceOwnership",
      "outputs": [],
      "stateMutability": "nonpayable",
      "type": "function"
    },
    {
      "inputs": [
        {
          "internalType": "address",
          "name": "newOwner",
          "type": "address"
        }
      ],
      "name": "transferOwnership",
      "outputs": [],
      "stateMutability": "nonpayable",
      "type": "function"
    },
    {
      "inputs": [
        {
          "internalType": "address",
          "name": "NFTcode",
          "type": "address"
        }
      ],
      "name": "getDetails",
      "outputs": [
        {
          "internalType": "string",
          "name": "",
          "type": "string"
        },
        {
          "internalType": "string",
          "name": "",
          "type": "string"
        },
        {
          "internalType": "uint256",
          "name": "",
          "type": "uint256"
        },
        {
          "internalType": "uint256",
          "name": "",
          "type": "uint256"
        },
        {
          "internalType": "address",
          "name": "",
          "type": "address"
        }
      ],
      "stateMutability": "view",
      "type": "function"
    }
  ],
  "bytecode": "0x608060405234801561001057600080fd5b5060006100216100c460201b60201c565b9050806000806101000a81548173ffffffffffffffffffffffffffffffffffffffff021916908373ffffffffffffffffffffffffffffffffffffffff1602179055508073ffffffffffffffffffffffffffffffffffffffff16600073ffffffffffffffffffffffffffffffffffffffff167f8be0079c531659141344cd1fd0a4f28419497f9722a3daafe3b4186f6b6457e060405160405180910390a3506100cc565b600033905090565b6109d6806100db6000396000f3fe608060405234801561001057600080fd5b506004361061004c5760003560e01c806330289c6114610051578063715018a6146100855780638da5cb5b1461008f578063f2fde38b146100ad575b600080fd5b61006b60048036038101906100669190610692565b6100c9565b60405161007c959493929190610773565b60405180910390f35b61008d610369565b005b6100976104a3565b6040516100a49190610758565b60405180910390f35b6100c760048036038101906100c29190610692565b6104cc565b005b6060806000806000600160008773ffffffffffffffffffffffffffffffffffffffff1673ffffffffffffffffffffffffffffffffffffffff168152602001908152602001600020600001600160008873ffffffffffffffffffffffffffffffffffffffff1673ffffffffffffffffffffffffffffffffffffffff168152602001908152602001600020600101600160008973ffffffffffffffffffffffffffffffffffffffff1673ffffffffffffffffffffffffffffffffffffffff16815260200190815260200160002060020154600160008a73ffffffffffffffffffffffffffffffffffffffff1673ffffffffffffffffffffffffffffffffffffffff16815260200190815260200160002060030154600160008b73ffffffffffffffffffffffffffffffffffffffff1673ffffffffffffffffffffffffffffffffffffffff16815260200190815260200160002060040160009054906101000a900473ffffffffffffffffffffffffffffffffffffffff1684805461024a9061089f565b80601f01602080910402602001604051908101604052809291908181526020018280546102769061089f565b80156102c35780601f10610298576101008083540402835291602001916102c3565b820191906000526020600020905b8154815290600101906020018083116102a657829003601f168201915b505050505094508380546102d69061089f565b80601f01602080910402602001604051908101604052809291908181526020018280546103029061089f565b801561034f5780601f106103245761010080835404028352916020019161034f565b820191906000526020600020905b81548152906001019060200180831161033257829003601f168201915b505050505093509450945094509450945091939590929450565b610371610675565b73ffffffffffffffffffffffffffffffffffffffff1661038f6104a3565b73ffffffffffffffffffffffffffffffffffffffff16146103e5576040517f08c379a00000000000000000000000000000000000000000000000000000000081526004016103dc906107f4565b60405180910390fd5b600073ffffffffffffffffffffffffffffffffffffffff1660008054906101000a900473ffffffffffffffffffffffffffffffffffffffff1673ffffffffffffffffffffffffffffffffffffffff167f8be0079c531659141344cd1fd0a4f28419497f9722a3daafe3b4186f6b6457e060405160405180910390a360008060006101000a81548173ffffffffffffffffffffffffffffffffffffffff021916908373ffffffffffffffffffffffffffffffffffffffff160217905550565b60008060009054906101000a900473ffffffffffffffffffffffffffffffffffffffff16905090565b6104d4610675565b73ffffffffffffffffffffffffffffffffffffffff166104f26104a3565b73ffffffffffffffffffffffffffffffffffffffff1614610548576040517f08c379a000000000000000000000000000000000000000000000000000000000815260040161053f906107f4565b60405180910390fd5b600073ffffffffffffffffffffffffffffffffffffffff168173ffffffffffffffffffffffffffffffffffffffff1614156105b8576040517f08c379a00000000000000000000000000000000000000000000000000000000081526004016105af906107d4565b60405180910390fd5b8073ffffffffffffffffffffffffffffffffffffffff1660008054906101000a900473ffffffffffffffffffffffffffffffffffffffff1673ffffffffffffffffffffffffffffffffffffffff167f8be0079c531659141344cd1fd0a4f28419497f9722a3daafe3b4186f6b6457e060405160405180910390a3806000806101000a81548173ffffffffffffffffffffffffffffffffffffffff021916908373ffffffffffffffffffffffffffffffffffffffff16021790555050565b600033905090565b60008135905061068c81610989565b92915050565b6000602082840312156106a457600080fd5b60006106b28482850161067d565b91505092915050565b6106c481610830565b82525050565b60006106d582610814565b6106df818561081f565b93506106ef81856020860161086c565b6106f881610900565b840191505092915050565b600061071060268361081f565b915061071b82610911565b604082019050919050565b600061073360208361081f565b915061073e82610960565b602082019050919050565b61075281610862565b82525050565b600060208201905061076d60008301846106bb565b92915050565b600060a082019050818103600083015261078d81886106ca565b905081810360208301526107a181876106ca565b90506107b06040830186610749565b6107bd6060830185610749565b6107ca60808301846106bb565b9695505050505050565b600060208201905081810360008301526107ed81610703565b9050919050565b6000602082019050818103600083015261080d81610726565b9050919050565b600081519050919050565b600082825260208201905092915050565b600061083b82610842565b9050919050565b600073ffffffffffffffffffffffffffffffffffffffff82169050919050565b6000819050919050565b60005b8381101561088a57808201518184015260208101905061086f565b83811115610899576000848401525b50505050565b600060028204905060018216806108b757607f821691505b602082108114156108cb576108ca6108d1565b5b50919050565b7f4e487b7100000000000000000000000000000000000000000000000000000000600052602260045260246000fd5b6000601f19601f8301169050919050565b7f4f776e61626c653a206e6577206f776e657220697320746865207a65726f206160008201527f6464726573730000000000000000000000000000000000000000000000000000602082015250565b7f4f776e61626c653a2063616c6c6572206973206e6f7420746865206f776e6572600082015250565b61099281610830565b811461099d57600080fd5b5056fea264697066735822122020a3bfad10b44b18aaae920fe8d8657220a100f5e1f21a4b63329ea4d429e7ef64736f6c63430008040033",
  "immutableReferences": {},
  "source": "//SPDX-License-Identifier: UNLICENSED\npragma solidity >=0.4.22 <0.9.0;\n\nimport \"./ownable.sol\";\nimport \"./NFTcreate.sol\";\n/// @title A title that should describe the contract/interface\n/// @author The name of the author\n/// @notice Explain to an end user what this does\n/// @dev Explain to a developer any extra details\n\ncontract NftDetails is Ownable\n//, NFTcreate\n{\n//NFTdetail[] data ;\n//NFTcreate nftcreate ;\nmapping (address => NFTdetail) store;\nstruct NFTdetail{\n    string NFTname;\n    string ownerName;\n    uint timeStamp;\n    uint blockNum;\n    address ownerAddress;\n}\n/*\nconstructor (address _contractAddress){\n    nftcreate = NFTcreate(_contractAddress);\n}\n*/\nfunction addDetails (string memory _NFTname, string memory _ownerName, uint _timeStamp, uint _blockNum, address _ownerAddress,address NFTcode) internal onlyOwner {\n store[NFTcode] = NFTdetail(_NFTname,_ownerName,_timeStamp, _blockNum, _ownerAddress); \n}\n\nfunction getDetails (address NFTcode) public view returns (string memory , string memory ,uint ,uint, address) {\n    return (store[NFTcode].NFTname,store[NFTcode].ownerName,store[NFTcode].timeStamp, store[NFTcode].blockNum, store[NFTcode].ownerAddress);\n}\n\n}",
  "sourcePath": "/home/abhuntu/solidity/contracts/NFTdetails.sol",
  "compiler": {
    "name": "solc",
    "version": "0.8.4+commit.c7e474f2.Emscripten.clang"
  },
  "schemaVersion": "3.4.1",
  "updatedAt": "2021-06-05T07:59:13.759Z",
  "devdoc": {
    "author": "The name of the author",
    "details": "Explain to a developer any extra details",
    "kind": "dev",
    "methods": {
      "owner()": {
        "details": "Returns the address of the current owner."
      },
      "renounceOwnership()": {
        "details": "Leaves the contract without owner. It will not be possible to call `onlyOwner` functions anymore. Can only be called by the current owner. NOTE: Renouncing ownership will leave the contract without an owner, thereby removing any functionality that is only available to the owner."
      },
      "transferOwnership(address)": {
        "details": "Transfers ownership of the contract to a new account (`newOwner`). Can only be called by the current owner."
      }
    },
    "title": "A title that should describe the contract/interface",
    "version": 1
  },
  "userdoc": {
    "kind": "user",
    "methods": {},
    "notice": "Explain to an end user what this does",
    "version": 1
  }
}